{
  "fileName": "Marketplace.sol",
  "contractName": "Marketplace",
  "source": "// SPDX-License-Identifier: UNLICENSED\n\npragma solidity =0.7.0;\n\ncontract Marketplace {\n    enum Stage { Pending, Open, Closed }\n    \n    struct Product {\n        uint256 Id;\n        uint256 price;\n        uint256 quantity;\n        uint256[] offerIds;\n        uint256[] acceptedOfferIds;\n        string name;\n        string description;\n        address orderOwner;\n        Stage reqStage;\n    }\n    \n    struct Offer {\n        uint256 Id;\n        uint256 productId;\n        uint256 amount;\n        uint256 quantity;\n        address offerMaker;\n        Stage offStage;\n    }\n    \n    uint256 internal reqNum = 1;\n    uint256 internal offNum = 1;\n    uint256[] internal openProductIds;\n    uint256[] internal closedProductIds;\n    \n    mapping(uint256 => Product) internal products;\n    mapping(uint256 => Offer) internal offers;\n    \n    event ProductAdded(uint256 productId);\n    event OfferAdded(uint256 offerId);\n    event TradeSettled(uint256 productId, uint256 offerId);\n    \n    function getOpenProductIds() external view returns(uint256[] memory) {\n        return openProductIds;\n    }\n    \n    function getClosedProductIds() external view returns(uint256[] memory) {\n        return closedProductIds;\n    }\n    \n    function getProduct(uint256 _productId) external view returns(Stage stage, address productOwner) {\n        return (products[_productId].reqStage, products[_productId].orderOwner);\n    }\n    \n    function getOffer(uint256 _productId) external view returns(uint256 offerId, address offerMaker, uint256 quantity, Stage stage, uint256 amount) {\n        return (offers[_productId].productId, \n        offers[_productId].offerMaker, \n        offers[_productId].quantity, \n        offers[_productId].offStage,\n        offers[_productId].amount\n        );\n    }\n    \n    function getProductOfferIds(uint256 _productId) external view returns(uint256[] memory offerIds) {\n        return products[_productId].offerIds;\n    }\n    \n    function submitOffer(uint256 _productId, uint256 _amount, uint256 _quantity) external returns(uint256 offerId) {\n        Offer memory offer;\n        offer.productId = _productId;\n        offer.amount = _amount;\n        offer.offerMaker = msg.sender;\n        offer.quantity = _quantity;\n        offer.Id = offNum;\n        offNum += 1;\n        offer.offStage = Stage.Pending;\n        offers[offer.Id] = offer;\n        products[offer.productId].offerIds.push(offer.Id);\n        \n        emit OfferAdded(offer.Id);\n        return offer.Id;\n    }\n}",
  "sourcePath": "contracts/Marketplace.sol",
  "abi": [
    {
      "anonymous": false,
      "inputs": [
        {
          "indexed": false,
          "internalType": "uint256",
          "name": "offerId",
          "type": "uint256"
        }
      ],
      "name": "OfferAdded",
      "type": "event"
    },
    {
      "anonymous": false,
      "inputs": [
        {
          "indexed": false,
          "internalType": "uint256",
          "name": "productId",
          "type": "uint256"
        }
      ],
      "name": "ProductAdded",
      "type": "event"
    },
    {
      "anonymous": false,
      "inputs": [
        {
          "indexed": false,
          "internalType": "uint256",
          "name": "productId",
          "type": "uint256"
        },
        {
          "indexed": false,
          "internalType": "uint256",
          "name": "offerId",
          "type": "uint256"
        }
      ],
      "name": "TradeSettled",
      "type": "event"
    },
    {
      "inputs": [],
      "name": "getClosedProductIds",
      "outputs": [
        {
          "internalType": "uint256[]",
          "name": "",
          "type": "uint256[]"
        }
      ],
      "stateMutability": "view",
      "type": "function"
    },
    {
      "inputs": [
        {
          "internalType": "uint256",
          "name": "_productId",
          "type": "uint256"
        }
      ],
      "name": "getOffer",
      "outputs": [
        {
          "internalType": "uint256",
          "name": "offerId",
          "type": "uint256"
        },
        {
          "internalType": "address",
          "name": "offerMaker",
          "type": "address"
        },
        {
          "internalType": "uint256",
          "name": "quantity",
          "type": "uint256"
        },
        {
          "internalType": "enum Marketplace.Stage",
          "name": "stage",
          "type": "uint8"
        },
        {
          "internalType": "uint256",
          "name": "amount",
          "type": "uint256"
        }
      ],
      "stateMutability": "view",
      "type": "function"
    },
    {
      "inputs": [],
      "name": "getOpenProductIds",
      "outputs": [
        {
          "internalType": "uint256[]",
          "name": "",
          "type": "uint256[]"
        }
      ],
      "stateMutability": "view",
      "type": "function"
    },
    {
      "inputs": [
        {
          "internalType": "uint256",
          "name": "_productId",
          "type": "uint256"
        }
      ],
      "name": "getProduct",
      "outputs": [
        {
          "internalType": "enum Marketplace.Stage",
          "name": "stage",
          "type": "uint8"
        },
        {
          "internalType": "address",
          "name": "productOwner",
          "type": "address"
        }
      ],
      "stateMutability": "view",
      "type": "function"
    },
    {
      "inputs": [
        {
          "internalType": "uint256",
          "name": "_productId",
          "type": "uint256"
        }
      ],
      "name": "getProductOfferIds",
      "outputs": [
        {
          "internalType": "uint256[]",
          "name": "offerIds",
          "type": "uint256[]"
        }
      ],
      "stateMutability": "view",
      "type": "function"
    },
    {
      "inputs": [
        {
          "internalType": "uint256",
          "name": "_productId",
          "type": "uint256"
        },
        {
          "internalType": "uint256",
          "name": "_amount",
          "type": "uint256"
        },
        {
          "internalType": "uint256",
          "name": "_quantity",
          "type": "uint256"
        }
      ],
      "name": "submitOffer",
      "outputs": [
        {
          "internalType": "uint256",
          "name": "offerId",
          "type": "uint256"
        }
      ],
      "stateMutability": "nonpayable",
      "type": "function"
    }
  ],
  "bytecode": "0x608060405260016000556001805534801561001957600080fd5b50610795806100296000396000f3fe608060405234801561001057600080fd5b50600436106100625760003560e01c80634579268a146100675780634e7d0d81146100e65780637669419f1461013c578063b9db15b4146101bf578063ca080d1714610229578063de4e05b014610288575b600080fd5b6100936004803603602081101561007d57600080fd5b81019080803590602001909291905050506102e7565b604051808681526020018573ffffffffffffffffffffffffffffffffffffffff1681526020018481526020018360028111156100cb57fe5b81526020018281526020019550505050505060405180910390f35b610126600480360360608110156100fc57600080fd5b810190808035906020019092919080359060200190929190803590602001909291905050506103a2565b6040518082815260200191505060405180910390f35b6101686004803603602081101561015257600080fd5b8101908080359060200190929190505050610583565b6040518080602001828103825283818151815260200191508051906020019060200280838360005b838110156101ab578082015181840152602081019050610190565b505050509050019250505060405180910390f35b6101eb600480360360208110156101d557600080fd5b81019080803590602001909291905050506105f1565b604051808360028111156101fb57fe5b81526020018273ffffffffffffffffffffffffffffffffffffffff1681526020019250505060405180910390f35b610231610658565b6040518080602001828103825283818151815260200191508051906020019060200280838360005b83811015610274578082015181840152602081019050610259565b505050509050019250505060405180910390f35b6102906106b0565b6040518080602001828103825283818151815260200191508051906020019060200280838360005b838110156102d35780820151818401526020810190506102b8565b505050509050019250505060405180910390f35b600080600080600060056000878152602001908152602001600020600101546005600088815260200190815260200160002060040160009054906101000a900473ffffffffffffffffffffffffffffffffffffffff166005600089815260200190815260200160002060030154600560008a815260200190815260200160002060040160149054906101000a900460ff16600560008b8152602001908152602001600020600201549450945094509450945091939590929450565b60006103ac610708565b848160200181815250508381604001818152505033816080019073ffffffffffffffffffffffffffffffffffffffff16908173ffffffffffffffffffffffffffffffffffffffff1681525050828160600181815250506001548160000181815250506001806000828254019250508190555060008160a00190600281111561043057fe5b9081600281111561043d57fe5b815250508060056000836000015181526020019081526020016000206000820151816000015560208201518160010155604082015181600201556060820151816003015560808201518160040160006101000a81548173ffffffffffffffffffffffffffffffffffffffff021916908373ffffffffffffffffffffffffffffffffffffffff16021790555060a08201518160040160146101000a81548160ff021916908360028111156104ec57fe5b02179055509050506004600082602001518152602001908152602001600020600301816000015190806001815401808255809150506001900390600052602060002001600090919091909150557f41ed8f014b7d5f314760bdd6a5d51932a4bf683b0780d2c0a9de75bbc18d096581600001516040518082815260200191505060405180910390a180600001519150509392505050565b6060600460008381526020019081526020016000206003018054806020026020016040519081016040528092919081815260200182805480156105e557602002820191906000526020600020905b8154815260200190600101908083116105d1575b50505050509050919050565b6000806004600084815260200190815260200160002060070160149054906101000a900460ff166004600085815260200190815260200160002060070160009054906101000a900473ffffffffffffffffffffffffffffffffffffffff1691509150915091565b606060028054806020026020016040519081016040528092919081815260200182805480156106a657602002820191906000526020600020905b815481526020019060010190808311610692575b5050505050905090565b606060038054806020026020016040519081016040528092919081815260200182805480156106fe57602002820191906000526020600020905b8154815260200190600101908083116106ea575b5050505050905090565b6040518060c0016040528060008152602001600081526020016000815260200160008152602001600073ffffffffffffffffffffffffffffffffffffffff1681526020016000600281111561075957fe5b8152509056fea2646970667358221220c7d54da1b2f663767114bb359adaa40ef26078c4dcc063d997c0f1eed067110664736f6c63430007000033",
  "compiler": {
    "name": "solc",
    "version": "0.7.0+commit.9e61f92b.Emscripten.clang",
    "optimizer": {
      "enabled": false,
      "runs": 200
    },
    "evmVersion": "petersburg"
  }
}