{
  "fileName": "Marketplace.sol",
  "contractName": "Marketplace",
  "source": "// SPDX-License-Identifier: UNLICENSED\n\npragma solidity =0.7.0;\n\nimport \"@openzeppelin/contracts/token/ERC20/IERC20.sol\";\n\ncontract Marketplace {\n    enum Stage { Open, Closed }\n    enum OfferStatus { Pending, Accepted, Rejected }\n    \n    struct Product {\n        uint256 Id;\n        uint256 price;\n        uint256 quantity;\n        uint256 deadline;\n        uint256 acceptedOfferId;\n        uint256[] offerIds;\n        string name;\n        bytes32 description; // optional offchain || hash number on IPFS\n        address orderOwner;\n        Stage reqStage;\n        uint8 paymentType;\n        address tokenAddress; \n        bool isDecided;\n        bool isPaid;\n    }\n    \n    struct Offer {\n        uint256 Id;\n        uint256 productId;\n        uint256 price;\n        uint256 quantity;\n        address offerMaker;\n        OfferStatus offStage;\n    }\n\n    modifier onlySeller(uint256 _productId) {\n        require(products[_productId].orderOwner == msg.sender, \"Only order owner can access\");\n        _;\n    }\n\n    uint256 internal productNum;\n    uint256 internal offNum;\n    \n    mapping(uint256 => Product) internal products;\n    mapping(uint256 => Offer) internal offers;\n    mapping(address => Product) internal productsOwner;\n    \n    event ProductAdded(uint256 productId, uint256 deadline);\n    event ProductClosed(uint256 productId);\n    event ProductRemoved(uint256 productId);\n    event OfferAdded(uint256 offerId);\n    event TradeSettled(uint256 productId, uint256 offerId);\n    event OfferDecided(uint256 productId, uint256 offerId);\n    event OfferPaymentSentInEther(uint256 productId, uint256 offerId, uint256 amount, address beneficiary, address offerMaker);\n    event OfferPaymentSentInToken(uint256 productId, uint256 offerId, uint256 amount, address beneficiary, address offerMaker);\n\n    constructor() {\n        productNum = 1;\n        offNum = 1;\n    }\n    \n    function getProduct(uint256 _productId) external view returns(string memory name, Stage stage, address productOwner, uint256 quantity, uint256 deadline) {\n        return (products[_productId].name, products[_productId].reqStage, products[_productId].orderOwner, products[_productId].quantity, products[_productId].deadline);\n    }\n\n    function getOrders(address _orderOwner) external view returns(uint256) {\n\n    }\n    \n    function getProductOfferIds(uint256 _productId) external view returns(uint256[] memory offerIds) {\n        return products[_productId].offerIds;\n    }\n\n    function getOffer(uint256 _productId) external view returns(uint256 productId, address offerMaker, uint256 quantity, OfferStatus stage, uint256 amount) {\n        return (\n            offers[_productId].productId, \n            offers[_productId].offerMaker, \n            offers[_productId].quantity, \n            offers[_productId].offStage,\n            offers[_productId].price\n        );\n    }\n\n    function submitProduct(uint256 _deadline, uint256 _quantity, uint256 _price, string memory _name, bytes32 _description, address token) external returns(uint256 productId) {\n        require(_quantity > 0, \"Atleast has 1 item\");\n        require(_deadline > block.timestamp, \"Invalid timestamp\");\n        Product memory product;\n        product.Id = productNum;\n        productNum += 1;\n        product.deadline = _deadline;\n        product.quantity = _quantity;\n        product.price = _price;\n        product.name = _name;\n        product.description = _description;\n        product.orderOwner = msg.sender;\n        product.reqStage = Stage.Open;\n        product.isDecided = false;\n        product.tokenAddress = token;\n        products[product.Id] = product;\n        productsOwner[msg.sender] = product;\n\n        emit ProductAdded(product.Id, product.deadline);\n        return product.Id;\n    }\n\n    function _closeProduct(uint256 _productId) internal {\n        require(block.timestamp > products[_productId].deadline, \"Deadline not completed\");\n        products[_productId].reqStage = Stage.Closed;\n        emit ProductClosed(_productId);\n    }\n\n    // Choose which offer to accept, based on the proposed prices.\n    // only order owner can execute & rejects all other offers\n    function decideOffer(uint256 _productId, uint256 _acceptedOfferId) external onlySeller(_productId) returns(bool status) {\n        _closeProduct(_productId);\n        for (uint k = 0; k < products[_productId].offerIds.length; k++) {\n            if(products[_productId].offerIds[k] == _acceptedOfferId) {\n                offers[_acceptedOfferId].offStage = OfferStatus.Accepted;\n                continue;\n            }\n            offers[products[_productId].offerIds[k]].offStage = OfferStatus.Rejected;\n        }\n        products[_productId].acceptedOfferId = _acceptedOfferId;\n        products[_productId].isDecided = true;\n\n        emit OfferDecided(_productId, _acceptedOfferId);\n        return true;\n    }\n    \n    function submitOffer(uint256 _productId, uint256 _price, uint256 _quantity) external returns(uint256 offerId) {\n        require(block.timestamp <= products[_productId].deadline, \"Sorry time is completed to submit offer\");\n        require(Stage.Open == products[_productId].reqStage, \"Product is not open now\");\n        require(_quantity <= products[_productId].quantity, \"No more stock left\");\n        require(products[_productId].offerIds.length <= 50, \"Limit of offers crossed\");\n        require(products[_productId].orderOwner != msg.sender, \"Order owner can not make any offer\");\n\n        Offer memory offer;\n        offer.productId = _productId;\n        offer.price = _price;\n        offer.offerMaker = msg.sender;\n        offer.quantity = _quantity;\n        offer.Id = offNum;\n        offNum += 1;\n        offer.offStage = OfferStatus.Pending;\n        offers[offer.Id] = offer;\n        products[offer.productId].offerIds.push(offer.Id);\n        \n        emit OfferAdded(offer.Id);\n        return offer.Id;\n    }\n\n    function deleteProduct(uint256 _productId) external onlySeller(_productId) {\n        for (uint i = 0; i < products[_productId].offerIds.length; i++) {\n            delete offers[products[_productId].offerIds[i]];\n        }\n\n        delete products[_productId];\n    }\n\n    function paymentInEther(uint256 _productId) external payable {\n        require(msg.value <= address(msg.sender).balance, \"You don't have sufficiet funds\");\n        require(offers[products[_productId].acceptedOfferId].offerMaker == msg.sender, \"Only authorize buyer can access\");\n        uint256 offerID = products[_productId].acceptedOfferId;\n        address _beneficiary = products[_productId].orderOwner;\n        if(products[_productId].isDecided == true && products[_productId].isPaid == false) {\n        payable(_beneficiary).transfer(msg.value);\n        }\n        \n        products[_productId].isPaid = true;\n        emit OfferPaymentSentInEther(_productId, offerID, msg.value, _beneficiary, offers[offerID].offerMaker);\n    }\n\n    function paymentInToken(uint256 _productId, uint256 _amount, address token) external returns(bool) {\n        require(products[_productId].tokenAddress == token, \"You can only pay in token defined by order owner\");\n        require(offers[products[_productId].acceptedOfferId].offerMaker == msg.sender, \"Only authorize buyer can access\");\n        uint256 offerId = products[_productId].acceptedOfferId;\n        if(products[_productId].isDecided == true && products[_productId].isPaid == false) {\n            IERC20(token).transfer(products[_productId].orderOwner, offers[offerId].price);\n        }\n        \n        products[_productId].isPaid = true;\n        emit OfferPaymentSentInToken(_productId, offerId, _amount, products[_productId].orderOwner, offers[offerId].offerMaker);\n    }\n}",
  "sourcePath": "contracts/Marketplace.sol",
  "abi": [
    {
      "inputs": [],
      "stateMutability": "nonpayable",
      "type": "constructor"
    },
    {
      "anonymous": false,
      "inputs": [
        {
          "indexed": false,
          "internalType": "uint256",
          "name": "offerId",
          "type": "uint256"
        }
      ],
      "name": "OfferAdded",
      "type": "event"
    },
    {
      "anonymous": false,
      "inputs": [
        {
          "indexed": false,
          "internalType": "uint256",
          "name": "productId",
          "type": "uint256"
        },
        {
          "indexed": false,
          "internalType": "uint256",
          "name": "offerId",
          "type": "uint256"
        }
      ],
      "name": "OfferDecided",
      "type": "event"
    },
    {
      "anonymous": false,
      "inputs": [
        {
          "indexed": false,
          "internalType": "uint256",
          "name": "productId",
          "type": "uint256"
        },
        {
          "indexed": false,
          "internalType": "uint256",
          "name": "offerId",
          "type": "uint256"
        },
        {
          "indexed": false,
          "internalType": "uint256",
          "name": "amount",
          "type": "uint256"
        },
        {
          "indexed": false,
          "internalType": "address",
          "name": "beneficiary",
          "type": "address"
        },
        {
          "indexed": false,
          "internalType": "address",
          "name": "offerMaker",
          "type": "address"
        }
      ],
      "name": "OfferPaymentSentInEther",
      "type": "event"
    },
    {
      "anonymous": false,
      "inputs": [
        {
          "indexed": false,
          "internalType": "uint256",
          "name": "productId",
          "type": "uint256"
        },
        {
          "indexed": false,
          "internalType": "uint256",
          "name": "offerId",
          "type": "uint256"
        },
        {
          "indexed": false,
          "internalType": "uint256",
          "name": "amount",
          "type": "uint256"
        },
        {
          "indexed": false,
          "internalType": "address",
          "name": "beneficiary",
          "type": "address"
        },
        {
          "indexed": false,
          "internalType": "address",
          "name": "offerMaker",
          "type": "address"
        }
      ],
      "name": "OfferPaymentSentInToken",
      "type": "event"
    },
    {
      "anonymous": false,
      "inputs": [
        {
          "indexed": false,
          "internalType": "uint256",
          "name": "productId",
          "type": "uint256"
        },
        {
          "indexed": false,
          "internalType": "uint256",
          "name": "deadline",
          "type": "uint256"
        }
      ],
      "name": "ProductAdded",
      "type": "event"
    },
    {
      "anonymous": false,
      "inputs": [
        {
          "indexed": false,
          "internalType": "uint256",
          "name": "productId",
          "type": "uint256"
        }
      ],
      "name": "ProductClosed",
      "type": "event"
    },
    {
      "anonymous": false,
      "inputs": [
        {
          "indexed": false,
          "internalType": "uint256",
          "name": "productId",
          "type": "uint256"
        }
      ],
      "name": "ProductRemoved",
      "type": "event"
    },
    {
      "anonymous": false,
      "inputs": [
        {
          "indexed": false,
          "internalType": "uint256",
          "name": "productId",
          "type": "uint256"
        },
        {
          "indexed": false,
          "internalType": "uint256",
          "name": "offerId",
          "type": "uint256"
        }
      ],
      "name": "TradeSettled",
      "type": "event"
    },
    {
      "inputs": [
        {
          "internalType": "uint256",
          "name": "_productId",
          "type": "uint256"
        },
        {
          "internalType": "uint256",
          "name": "_acceptedOfferId",
          "type": "uint256"
        }
      ],
      "name": "decideOffer",
      "outputs": [
        {
          "internalType": "bool",
          "name": "status",
          "type": "bool"
        }
      ],
      "stateMutability": "nonpayable",
      "type": "function"
    },
    {
      "inputs": [
        {
          "internalType": "uint256",
          "name": "_productId",
          "type": "uint256"
        }
      ],
      "name": "deleteProduct",
      "outputs": [],
      "stateMutability": "nonpayable",
      "type": "function"
    },
    {
      "inputs": [
        {
          "internalType": "uint256",
          "name": "_productId",
          "type": "uint256"
        }
      ],
      "name": "getOffer",
      "outputs": [
        {
          "internalType": "uint256",
          "name": "productId",
          "type": "uint256"
        },
        {
          "internalType": "address",
          "name": "offerMaker",
          "type": "address"
        },
        {
          "internalType": "uint256",
          "name": "quantity",
          "type": "uint256"
        },
        {
          "internalType": "enum Marketplace.OfferStatus",
          "name": "stage",
          "type": "uint8"
        },
        {
          "internalType": "uint256",
          "name": "amount",
          "type": "uint256"
        }
      ],
      "stateMutability": "view",
      "type": "function"
    },
    {
      "inputs": [
        {
          "internalType": "address",
          "name": "_orderOwner",
          "type": "address"
        }
      ],
      "name": "getOrders",
      "outputs": [
        {
          "internalType": "uint256",
          "name": "",
          "type": "uint256"
        }
      ],
      "stateMutability": "view",
      "type": "function"
    },
    {
      "inputs": [
        {
          "internalType": "uint256",
          "name": "_productId",
          "type": "uint256"
        }
      ],
      "name": "getProduct",
      "outputs": [
        {
          "internalType": "string",
          "name": "name",
          "type": "string"
        },
        {
          "internalType": "enum Marketplace.Stage",
          "name": "stage",
          "type": "uint8"
        },
        {
          "internalType": "address",
          "name": "productOwner",
          "type": "address"
        },
        {
          "internalType": "uint256",
          "name": "quantity",
          "type": "uint256"
        },
        {
          "internalType": "uint256",
          "name": "deadline",
          "type": "uint256"
        }
      ],
      "stateMutability": "view",
      "type": "function"
    },
    {
      "inputs": [
        {
          "internalType": "uint256",
          "name": "_productId",
          "type": "uint256"
        }
      ],
      "name": "getProductOfferIds",
      "outputs": [
        {
          "internalType": "uint256[]",
          "name": "offerIds",
          "type": "uint256[]"
        }
      ],
      "stateMutability": "view",
      "type": "function"
    },
    {
      "inputs": [
        {
          "internalType": "uint256",
          "name": "_productId",
          "type": "uint256"
        }
      ],
      "name": "paymentInEther",
      "outputs": [],
      "stateMutability": "payable",
      "type": "function"
    },
    {
      "inputs": [
        {
          "internalType": "uint256",
          "name": "_productId",
          "type": "uint256"
        },
        {
          "internalType": "uint256",
          "name": "_amount",
          "type": "uint256"
        },
        {
          "internalType": "address",
          "name": "token",
          "type": "address"
        }
      ],
      "name": "paymentInToken",
      "outputs": [
        {
          "internalType": "bool",
          "name": "",
          "type": "bool"
        }
      ],
      "stateMutability": "nonpayable",
      "type": "function"
    },
    {
      "inputs": [
        {
          "internalType": "uint256",
          "name": "_productId",
          "type": "uint256"
        },
        {
          "internalType": "uint256",
          "name": "_price",
          "type": "uint256"
        },
        {
          "internalType": "uint256",
          "name": "_quantity",
          "type": "uint256"
        }
      ],
      "name": "submitOffer",
      "outputs": [
        {
          "internalType": "uint256",
          "name": "offerId",
          "type": "uint256"
        }
      ],
      "stateMutability": "nonpayable",
      "type": "function"
    },
    {
      "inputs": [
        {
          "internalType": "uint256",
          "name": "_deadline",
          "type": "uint256"
        },
        {
          "internalType": "uint256",
          "name": "_quantity",
          "type": "uint256"
        },
        {
          "internalType": "uint256",
          "name": "_price",
          "type": "uint256"
        },
        {
          "internalType": "string",
          "name": "_name",
          "type": "string"
        },
        {
          "internalType": "bytes32",
          "name": "_description",
          "type": "bytes32"
        },
        {
          "internalType": "address",
          "name": "token",
          "type": "address"
        }
      ],
      "name": "submitProduct",
      "outputs": [
        {
          "internalType": "uint256",
          "name": "productId",
          "type": "uint256"
        }
      ],
      "stateMutability": "nonpayable",
      "type": "function"
    }
  ],
  "bytecode": "0x608060405234801561001057600080fd5b506001600081905550600180819055506123d28061002f6000396000f3fe6080604052600436106100915760003560e01c80634e7d0d81116100595780634e7d0d81146103545780637139f33e146103b75780637669419f14610412578063b9db15b4146104a2578063ed90c7b71461059357610091565b806305734d2714610096578063093376fe146101ba57806335887ac21461021f57806335b860551461029a5780634579268a146102c8575b600080fd5b3480156100a257600080fd5b506101a4600480360360c08110156100b957600080fd5b81019080803590602001909291908035906020019092919080359060200190929190803590602001906401000000008111156100f457600080fd5b82018360208201111561010657600080fd5b8035906020019184600183028401116401000000008311171561012857600080fd5b91908080601f016020809104026020016040519081016040528093929190818152602001838380828437600081840152601f19601f82011690508083019250505050505050919291929080359060200190929190803573ffffffffffffffffffffffffffffffffffffffff1690602001909291905050506105ce565b6040518082815260200191505060405180910390f35b3480156101c657600080fd5b50610209600480360360208110156101dd57600080fd5b81019080803573ffffffffffffffffffffffffffffffffffffffff169060200190929190505050610b96565b6040518082815260200191505060405180910390f35b34801561022b57600080fd5b506102826004803603606081101561024257600080fd5b810190808035906020019092919080359060200190929190803573ffffffffffffffffffffffffffffffffffffffff169060200190929190505050610b9d565b60405180821515815260200191505060405180910390f35b6102c6600480360360208110156102b057600080fd5b8101908080359060200190929190505050610fe4565b005b3480156102d457600080fd5b50610301600480360360208110156102eb57600080fd5b810190808035906020019092919050505061134c565b604051808681526020018573ffffffffffffffffffffffffffffffffffffffff16815260200184815260200183600281111561033957fe5b81526020018281526020019550505050505060405180910390f35b34801561036057600080fd5b506103a16004803603606081101561037757600080fd5b81019080803590602001909291908035906020019092919080359060200190929190505050611407565b6040518082815260200191505060405180910390f35b3480156103c357600080fd5b506103fa600480360360408110156103da57600080fd5b8101908080359060200190929190803590602001909291905050506118dd565b60405180821515815260200191505060405180910390f35b34801561041e57600080fd5b5061044b6004803603602081101561043557600080fd5b8101908080359060200190929190505050611b5a565b6040518080602001828103825283818151815260200191508051906020019060200280838360005b8381101561048e578082015181840152602081019050610473565b505050509050019250505060405180910390f35b3480156104ae57600080fd5b506104db600480360360208110156104c557600080fd5b8101908080359060200190929190505050611bc8565b60405180806020018660018111156104ef57fe5b81526020018573ffffffffffffffffffffffffffffffffffffffff168152602001848152602001838152602001828103825287818151815260200191508051906020019080838360005b83811015610554578082015181840152602081019050610539565b50505050905090810190601f1680156105815780820380516001836020036101000a031916815260200191505b50965050505050505060405180910390f35b34801561059f57600080fd5b506105cc600480360360208110156105b657600080fd5b8101908080359060200190929190505050611d1e565b005b6000808611610645576040517f08c379a00000000000000000000000000000000000000000000000000000000081526004018080602001828103825260128152602001807f41746c65617374206861732031206974656d000000000000000000000000000081525060200191505060405180910390fd5b4287116106ba576040517f08c379a00000000000000000000000000000000000000000000000000000000081526004018080602001828103825260118152602001807f496e76616c69642074696d657374616d7000000000000000000000000000000081525060200191505060405180910390fd5b6106c26120c9565b60005481600001818152505060016000808282540192505081905550878160600181815250508681604001818152505085816020018181525050848160c00181905250838160e00181815250503381610100019073ffffffffffffffffffffffffffffffffffffffff16908173ffffffffffffffffffffffffffffffffffffffff16815250506000816101200190600181111561075b57fe5b9081600181111561076857fe5b815250506000816101800190151590811515815250508281610160019073ffffffffffffffffffffffffffffffffffffffff16908173ffffffffffffffffffffffffffffffffffffffff1681525050806002600083600001518152602001908152602001600020600082015181600001556020820151816001015560408201518160020155606082015181600301556080820151816004015560a082015181600501908051906020019061081d929190612179565b5060c082015181600601908051906020019061083a9291906121c6565b5060e082015181600701556101008201518160080160006101000a81548173ffffffffffffffffffffffffffffffffffffffff021916908373ffffffffffffffffffffffffffffffffffffffff1602179055506101208201518160080160146101000a81548160ff021916908360018111156108b257fe5b02179055506101408201518160080160156101000a81548160ff021916908360ff1602179055506101608201518160090160006101000a81548173ffffffffffffffffffffffffffffffffffffffff021916908373ffffffffffffffffffffffffffffffffffffffff1602179055506101808201518160090160146101000a81548160ff0219169083151502179055506101a08201518160090160156101000a81548160ff02191690831515021790555090505080600460003373ffffffffffffffffffffffffffffffffffffffff1673ffffffffffffffffffffffffffffffffffffffff168152602001908152602001600020600082015181600001556020820151816001015560408201518160020155606082015181600301556080820151816004015560a08201518160050190805190602001906109f4929190612179565b5060c0820151816006019080519060200190610a119291906121c6565b5060e082015181600701556101008201518160080160006101000a81548173ffffffffffffffffffffffffffffffffffffffff021916908373ffffffffffffffffffffffffffffffffffffffff1602179055506101208201518160080160146101000a81548160ff02191690836001811115610a8957fe5b02179055506101408201518160080160156101000a81548160ff021916908360ff1602179055506101608201518160090160006101000a81548173ffffffffffffffffffffffffffffffffffffffff021916908373ffffffffffffffffffffffffffffffffffffffff1602179055506101808201518160090160146101000a81548160ff0219169083151502179055506101a08201518160090160156101000a81548160ff0219169083151502179055509050507f33c160b359f2cb727eded18f7af833115619d0cf7a86e511856c2b8ec4f60a6f81600001518260600151604051808381526020018281526020019250505060405180910390a180600001519150509695505050505050565b6000919050565b60008173ffffffffffffffffffffffffffffffffffffffff166002600086815260200190815260200160002060090160009054906101000a900473ffffffffffffffffffffffffffffffffffffffff1673ffffffffffffffffffffffffffffffffffffffff1614610c59576040517f08c379a00000000000000000000000000000000000000000000000000000000081526004018080602001828103825260308152602001806123466030913960400191505060405180910390fd5b3373ffffffffffffffffffffffffffffffffffffffff16600360006002600088815260200190815260200160002060040154815260200190815260200160002060040160009054906101000a900473ffffffffffffffffffffffffffffffffffffffff1673ffffffffffffffffffffffffffffffffffffffff1614610d46576040517f08c379a000000000000000000000000000000000000000000000000000000000815260040180806020018281038252601f8152602001807f4f6e6c7920617574686f72697a652062757965722063616e206163636573730081525060200191505060405180910390fd5b600060026000868152602001908152602001600020600401549050600115156002600087815260200190815260200160002060090160149054906101000a900460ff161515148015610dbf5750600015156002600087815260200190815260200160002060090160159054906101000a900460ff161515145b15610ebe578273ffffffffffffffffffffffffffffffffffffffff1663a9059cbb6002600088815260200190815260200160002060080160009054906101000a900473ffffffffffffffffffffffffffffffffffffffff1660036000858152602001908152602001600020600201546040518363ffffffff1660e01b8152600401808373ffffffffffffffffffffffffffffffffffffffff16815260200182815260200192505050602060405180830381600087803b158015610e8157600080fd5b505af1158015610e95573d6000803e3d6000fd5b505050506040513d6020811015610eab57600080fd5b8101908080519060200190929190505050505b60016002600087815260200190815260200160002060090160156101000a81548160ff0219169083151502179055507fe983e384dcbcba6b1a57e6bfe3b13816be55613ba87732f2efb59ad358f818ef858286600260008a815260200190815260200160002060080160009054906101000a900473ffffffffffffffffffffffffffffffffffffffff166003600087815260200190815260200160002060040160009054906101000a900473ffffffffffffffffffffffffffffffffffffffff16604051808681526020018581526020018481526020018373ffffffffffffffffffffffffffffffffffffffff1681526020018273ffffffffffffffffffffffffffffffffffffffff1681526020019550505050505060405180910390a1509392505050565b3373ffffffffffffffffffffffffffffffffffffffff1631341115611071576040517f08c379a000000000000000000000000000000000000000000000000000000000815260040180806020018281038252601e8152602001807f596f7520646f6e27742068617665207375666669636965742066756e6473000081525060200191505060405180910390fd5b3373ffffffffffffffffffffffffffffffffffffffff16600360006002600085815260200190815260200160002060040154815260200190815260200160002060040160009054906101000a900473ffffffffffffffffffffffffffffffffffffffff1673ffffffffffffffffffffffffffffffffffffffff161461115e576040517f08c379a000000000000000000000000000000000000000000000000000000000815260040180806020018281038252601f8152602001807f4f6e6c7920617574686f72697a652062757965722063616e206163636573730081525060200191505060405180910390fd5b60006002600083815260200190815260200160002060040154905060006002600084815260200190815260200160002060080160009054906101000a900473ffffffffffffffffffffffffffffffffffffffff169050600115156002600085815260200190815260200160002060090160149054906101000a900460ff1615151480156112125750600015156002600085815260200190815260200160002060090160159054906101000a900460ff161515145b1561125f578073ffffffffffffffffffffffffffffffffffffffff166108fc349081150290604051600060405180830381858888f1935050505015801561125d573d6000803e3d6000fd5b505b60016002600085815260200190815260200160002060090160156101000a81548160ff0219169083151502179055507f42285bb9994c0ceab0f920570adb7fcf8e1c79e397becd9b0bfaa1da4745acfc838334846003600088815260200190815260200160002060040160009054906101000a900473ffffffffffffffffffffffffffffffffffffffff16604051808681526020018581526020018481526020018373ffffffffffffffffffffffffffffffffffffffff1681526020018273ffffffffffffffffffffffffffffffffffffffff1681526020019550505050505060405180910390a1505050565b600080600080600060036000878152602001908152602001600020600101546003600088815260200190815260200160002060040160009054906101000a900473ffffffffffffffffffffffffffffffffffffffff166003600089815260200190815260200160002060030154600360008a815260200190815260200160002060040160149054906101000a900460ff16600360008b8152602001908152602001600020600201549450945094509450945091939590929450565b60006002600085815260200190815260200160002060030154421115611478576040517f08c379a00000000000000000000000000000000000000000000000000000000081526004018080602001828103825260278152602001806123766027913960400191505060405180910390fd5b6002600085815260200190815260200160002060080160149054906101000a900460ff1660018111156114a757fe5b600060018111156114b457fe5b14611527576040517f08c379a00000000000000000000000000000000000000000000000000000000081526004018080602001828103825260178152602001807f50726f64756374206973206e6f74206f70656e206e6f7700000000000000000081525060200191505060405180910390fd5b60026000858152602001908152602001600020600201548211156115b3576040517f08c379a00000000000000000000000000000000000000000000000000000000081526004018080602001828103825260128152602001807f4e6f206d6f72652073746f636b206c656674000000000000000000000000000081525060200191505060405180910390fd5b603260026000868152602001908152602001600020600501805490501115611643576040517f08c379a00000000000000000000000000000000000000000000000000000000081526004018080602001828103825260178152602001807f4c696d6974206f66206f66666572732063726f7373656400000000000000000081525060200191505060405180910390fd5b3373ffffffffffffffffffffffffffffffffffffffff166002600086815260200190815260200160002060080160009054906101000a900473ffffffffffffffffffffffffffffffffffffffff1673ffffffffffffffffffffffffffffffffffffffff1614156116fe576040517f08c379a00000000000000000000000000000000000000000000000000000000081526004018080602001828103825260228152602001806123246022913960400191505060405180910390fd5b611706612246565b848160200181815250508381604001818152505033816080019073ffffffffffffffffffffffffffffffffffffffff16908173ffffffffffffffffffffffffffffffffffffffff1681525050828160600181815250506001548160000181815250506001806000828254019250508190555060008160a00190600281111561178a57fe5b9081600281111561179757fe5b815250508060036000836000015181526020019081526020016000206000820151816000015560208201518160010155604082015181600201556060820151816003015560808201518160040160006101000a81548173ffffffffffffffffffffffffffffffffffffffff021916908373ffffffffffffffffffffffffffffffffffffffff16021790555060a08201518160040160146101000a81548160ff0219169083600281111561184657fe5b02179055509050506002600082602001518152602001908152602001600020600501816000015190806001815401808255809150506001900390600052602060002001600090919091909150557f41ed8f014b7d5f314760bdd6a5d51932a4bf683b0780d2c0a9de75bbc18d096581600001516040518082815260200191505060405180910390a180600001519150509392505050565b6000823373ffffffffffffffffffffffffffffffffffffffff166002600083815260200190815260200160002060080160009054906101000a900473ffffffffffffffffffffffffffffffffffffffff1673ffffffffffffffffffffffffffffffffffffffff16146119b7576040517f08c379a000000000000000000000000000000000000000000000000000000000815260040180806020018281038252601b8152602001807f4f6e6c79206f72646572206f776e65722063616e20616363657373000000000081525060200191505060405180910390fd5b6119c084611fcc565b60005b6002600086815260200190815260200160002060050180549050811015611ac55783600260008781526020019081526020016000206005018281548110611a0657fe5b90600052602060002001541415611a545760016003600086815260200190815260200160002060040160146101000a81548160ff02191690836002811115611a4a57fe5b0217905550611ab8565b600260036000600260008981526020019081526020016000206005018481548110611a7b57fe5b9060005260206000200154815260200190815260200160002060040160146101000a81548160ff02191690836002811115611ab257fe5b02179055505b80806001019150506119c3565b5082600260008681526020019081526020016000206004018190555060016002600086815260200190815260200160002060090160146101000a81548160ff0219169083151502179055507f48f2a901dec7aaa33813da00d8fc0a7093b3d1e96619c915489581a16b52a4ef8484604051808381526020018281526020019250505060405180910390a1600191505092915050565b606060026000838152602001908152602001600020600501805480602002602001604051908101604052809291908181526020018280548015611bbc57602002820191906000526020600020905b815481526020019060010190808311611ba8575b50505050509050919050565b6060600080600080600260008781526020019081526020016000206006016002600088815260200190815260200160002060080160149054906101000a900460ff166002600089815260200190815260200160002060080160009054906101000a900473ffffffffffffffffffffffffffffffffffffffff16600260008a815260200190815260200160002060020154600260008b815260200190815260200160002060030154848054600181600116156101000203166002900480601f016020809104026020016040519081016040528092919081815260200182805460018160011615610100020316600290048015611d045780601f10611cd957610100808354040283529160200191611d04565b820191906000526020600020905b815481529060010190602001808311611ce757829003601f168201915b505050505094509450945094509450945091939590929450565b803373ffffffffffffffffffffffffffffffffffffffff166002600083815260200190815260200160002060080160009054906101000a900473ffffffffffffffffffffffffffffffffffffffff1673ffffffffffffffffffffffffffffffffffffffff1614611df6576040517f08c379a000000000000000000000000000000000000000000000000000000000815260040180806020018281038252601b8152602001807f4f6e6c79206f72646572206f776e65722063616e20616363657373000000000081525060200191505060405180910390fd5b60005b6002600084815260200190815260200160002060050180549050811015611ec35760036000600260008681526020019081526020016000206005018381548110611e3f57fe5b906000526020600020015481526020019081526020016000206000808201600090556001820160009055600282016000905560038201600090556004820160006101000a81549073ffffffffffffffffffffffffffffffffffffffff02191690556004820160146101000a81549060ff021916905550508080600101915050611df9565b50600260008381526020019081526020016000206000808201600090556001820160009055600282016000905560038201600090556004820160009055600582016000611f10919061229d565b600682016000611f2091906122be565b60078201600090556008820160006101000a81549073ffffffffffffffffffffffffffffffffffffffff02191690556008820160146101000a81549060ff02191690556008820160156101000a81549060ff02191690556009820160006101000a81549073ffffffffffffffffffffffffffffffffffffffff02191690556009820160146101000a81549060ff02191690556009820160156101000a81549060ff021916905550505050565b60026000828152602001908152602001600020600301544211612057576040517f08c379a00000000000000000000000000000000000000000000000000000000081526004018080602001828103825260168152602001807f446561646c696e65206e6f7420636f6d706c657465640000000000000000000081525060200191505060405180910390fd5b60016002600083815260200190815260200160002060080160146101000a81548160ff0219169083600181111561208a57fe5b02179055507f4decba8405d75cb4731d42b112ddf38b53e3e7900aa350cb8c6a0d9af5bc0676816040518082815260200191505060405180910390a150565b604051806101c001604052806000815260200160008152602001600081526020016000815260200160008152602001606081526020016060815260200160008019168152602001600073ffffffffffffffffffffffffffffffffffffffff1681526020016000600181111561213a57fe5b8152602001600060ff168152602001600073ffffffffffffffffffffffffffffffffffffffff1681526020016000151581526020016000151581525090565b8280548282559060005260206000209081019282156121b5579160200282015b828111156121b4578251825591602001919060010190612199565b5b5090506121c29190612306565b5090565b828054600181600116156101000203166002900490600052602060002090601f016020900481019282601f1061220757805160ff1916838001178555612235565b82800160010185558215612235579182015b82811115612234578251825591602001919060010190612219565b5b5090506122429190612306565b5090565b6040518060c0016040528060008152602001600081526020016000815260200160008152602001600073ffffffffffffffffffffffffffffffffffffffff1681526020016000600281111561229757fe5b81525090565b50805460008255906000526020600020908101906122bb9190612306565b50565b50805460018160011615610100020316600290046000825580601f106122e45750612303565b601f0160209004906000526020600020908101906123029190612306565b5b50565b5b8082111561231f576000816000905550600101612307565b509056fe4f72646572206f776e65722063616e206e6f74206d616b6520616e79206f66666572596f752063616e206f6e6c792070617920696e20746f6b656e20646566696e6564206279206f72646572206f776e6572536f7272792074696d6520697320636f6d706c6574656420746f207375626d6974206f66666572a2646970667358221220c97f7d1996c2d4d4a8597656521676049fe9359e24866a2d60595fe64d38bf9864736f6c63430007000033",
  "compiler": {
    "name": "solc",
    "version": "0.7.0+commit.9e61f92b.Emscripten.clang",
    "optimizer": {
      "enabled": false,
      "runs": 200
    },
    "evmVersion": "petersburg"
  }
}