{
  "fileName": "Marketplace.sol",
  "contractName": "Marketplace",
  "source": "// SPDX-License-Identifier: UNLICENSED\n\npragma solidity =0.7.0;\n\nimport \"@openzeppelin/contracts/token/ERC20/IERC20.sol\";\n\ncontract Marketplace {\n    enum Stage { Open, Closed }\n    enum OfferStatus { Pending, Accepted, Rejected }\n    \n    struct Product {\n        uint256 Id;\n        uint256 price;\n        uint256 quantity;\n        uint256 deadline;\n        uint256 acceptedOfferId;\n        uint256[] offerIds; // loop for rejection\n        string name;\n        bytes32 description; // optional offchain || hash number on IPFS\n        address orderOwner;\n        Stage reqStage;\n        uint8 paymentType; // 0: Ether, 1: Token ?? || 2 ftns\n        address tokenAddress; // 0x0, 0xa56fgvdf67a ??\n        bool isDecided;\n        bool isPaid;\n    }\n    \n    struct Offer {\n        uint256 Id;\n        uint256 productId;\n        uint256 price;\n        uint256 quantity;\n        address offerMaker;\n        OfferStatus offStage; // accepted or rejected\n    }\n\n    modifier onlySeller(uint256 _productId) {\n        require(products[_productId].orderOwner == msg.sender, \"Only order owner can access\");\n        _;\n    }\n\n    uint256 internal productNum;\n    uint256 internal offNum;\n    \n    mapping(uint256 => Product) internal products;\n    mapping(uint256 => Offer) internal offers;\n    mapping(address => Product) internal productsOwner;\n    \n    event ProductAdded(uint256 productId, uint256 deadline);\n    event ProductClosed(uint256 productId);\n    event ProductRemoved(uint256 productId);\n    event OfferAdded(uint256 offerId);\n    event TradeSettled(uint256 productId, uint256 offerId);\n    event OfferDecided(uint256 productId, uint256 offerId);\n    event OfferPaymentSentInEther(uint256 productId, uint256 offerId, uint256 amount, address beneficiary, address offerMaker);\n    event OfferPaymentSentInToken(uint256 productId, uint256 offerId, uint256 amount, address beneficiary, address offerMaker);\n\n    constructor() {\n        productNum = 1;\n        offNum = 1;\n    }\n    \n    function getProduct(uint256 _productId) external view returns(Stage stage, address productOwner, uint256 deadline) {\n        return (products[_productId].reqStage, products[_productId].orderOwner, products[_productId].deadline);\n    }\n\n    function getOrders(address _orderOwner) external view returns(uint256) {\n\n    }\n    \n    function getProductOfferIds(uint256 _productId) external view returns(uint256[] memory offerIds) {\n        return products[_productId].offerIds;\n    }\n\n    function getOffer(uint256 _productId) external view returns(uint256 offerId, address offerMaker, uint256 quantity, OfferStatus stage, uint256 amount) {\n        return (\n            offers[_productId].productId, \n            offers[_productId].offerMaker, \n            offers[_productId].quantity, \n            offers[_productId].offStage,\n            offers[_productId].price\n        );\n    }\n\n    function submitProduct(uint256 _deadline, uint256 _quantity, uint256 _price, string memory _name, bytes32 _description) external returns(uint256 productId) {\n        Product memory product;\n        product.Id = productNum;\n        productNum += 1;\n        product.deadline = _deadline;\n        product.quantity = _quantity;\n        product.price = _price;\n        product.name = _name;\n        product.description = _description;\n        product.orderOwner = msg.sender;\n        product.reqStage = Stage.Open;\n        product.isDecided = false;\n        products[product.Id] = product;\n        productsOwner[msg.sender] = product;\n\n        emit ProductAdded(product.Id, product.deadline);\n        return product.Id;\n    }\n\n    function _closeProduct(uint256 _productId) internal {\n        require(products[_productId].deadline == block.timestamp, \"Deadline not completed\");\n        products[_productId].reqStage = Stage.Closed;\n        emit ProductClosed(_productId);\n    }\n\n    // Choose which offer to accept, based on the proposed prices.\n    // only order owner can execute & rejects all other offers\n    function decideOffer(uint256 _productId, uint256 _acceptedOfferId) external onlySeller(_productId) returns(bool status) {\n        _closeProduct(_productId);\n        for (uint k = 0; k <= products[_productId].offerIds.length; k++) {\n            if(products[_productId].offerIds[k] == _acceptedOfferId) {\n                continue;\n            }\n            offers[products[_productId].offerIds[k]].offStage = OfferStatus.Rejected;\n        }\n        products[_productId].acceptedOfferId = _acceptedOfferId;\n        products[_productId].isDecided = true;\n\n        emit OfferDecided(_productId, _acceptedOfferId);\n        return true;\n    }\n    \n    function submitOffer(uint256 _productId, uint256 _price, uint256 _quantity) external returns(uint256 offerId) {\n        require(block.timestamp > products[_productId].deadline, \"Sorry time is completed to submit offer\");\n        require(Stage.Open == products[_productId].reqStage, \"Product is not open now\");\n        require(products[_productId].offerIds.length <= 50, \"Limit of offers crossed\");\n        require(offers[_productId].offerMaker != msg.sender, \"You can make only single offer\");\n\n        Offer memory offer;\n        offer.productId = _productId;\n        offer.price = _price;\n        offer.offerMaker = msg.sender;\n        offer.quantity = _quantity;\n        offer.Id = offNum;\n        offNum += 1;\n        offer.offStage = OfferStatus.Pending;\n        offers[offer.Id] = offer;\n        products[offer.productId].offerIds.push(offer.Id);\n        \n        emit OfferAdded(offer.Id);\n        return offer.Id;\n    }\n\n    function deleteProduct(uint256 _productId) external {\n        for (uint i = 0; i < products[_productId].offerIds.length; i++) {\n            delete offers[products[_productId].offerIds[i]];\n        }\n\n        delete products[_productId];\n    }\n\n    function paymentInEther(uint256 _productId) external payable {\n        require(msg.value >= address(msg.sender).balance, \"You don't have sufficiet funds\");\n        require(offers[products[_productId].acceptedOfferId].offerMaker == msg.sender, \"Only authorize buyer can access\");\n        uint256 offerID = products[_productId].acceptedOfferId;\n        address _beneficiary = products[_productId].orderOwner;\n        if(products[_productId].isDecided == true && products[_productId].isPaid == false) {\n        payable(_beneficiary).transfer(msg.value);\n        }\n        products[_productId].isPaid = true;\n\n        emit OfferPaymentSentInEther(_productId, offerID, msg.value, _beneficiary, offers[offerID].offerMaker);\n    }\n\n    function paymentInToken(uint256 _productId, uint256 _amount, address token) external returns(bool){\n        uint256 offerId = products[_productId].acceptedOfferId;\n        bool result = false;\n        if(products[_productId].isDecided == true && products[_productId].isPaid == false) {\n            IERC20(token).allowance(msg.sender, products[_productId].orderOwner);\n            require(IERC20(token).transferFrom(msg.sender, products[_productId].orderOwner, _amount), \"Transfer failed\");\n            result = IERC20(token).transferFrom(products[_productId].orderOwner, offers[offerId].offerMaker, offers[offerId].price);\n        }\n        if(result == true) {\n            products[_productId].isPaid = true;\n            return true;\n        }\n\n        emit OfferPaymentSentInToken(_productId, offerId, _amount, products[_productId].orderOwner, offers[offerId].offerMaker);\n        return false;\n    }\n}",
  "sourcePath": "contracts/Marketplace.sol",
  "abi": [
    {
      "inputs": [],
      "stateMutability": "nonpayable",
      "type": "constructor"
    },
    {
      "anonymous": false,
      "inputs": [
        {
          "indexed": false,
          "internalType": "uint256",
          "name": "offerId",
          "type": "uint256"
        }
      ],
      "name": "OfferAdded",
      "type": "event"
    },
    {
      "anonymous": false,
      "inputs": [
        {
          "indexed": false,
          "internalType": "uint256",
          "name": "productId",
          "type": "uint256"
        },
        {
          "indexed": false,
          "internalType": "uint256",
          "name": "offerId",
          "type": "uint256"
        }
      ],
      "name": "OfferDecided",
      "type": "event"
    },
    {
      "anonymous": false,
      "inputs": [
        {
          "indexed": false,
          "internalType": "uint256",
          "name": "productId",
          "type": "uint256"
        },
        {
          "indexed": false,
          "internalType": "uint256",
          "name": "offerId",
          "type": "uint256"
        },
        {
          "indexed": false,
          "internalType": "uint256",
          "name": "amount",
          "type": "uint256"
        },
        {
          "indexed": false,
          "internalType": "address",
          "name": "beneficiary",
          "type": "address"
        },
        {
          "indexed": false,
          "internalType": "address",
          "name": "offerMaker",
          "type": "address"
        }
      ],
      "name": "OfferPaymentSentInEther",
      "type": "event"
    },
    {
      "anonymous": false,
      "inputs": [
        {
          "indexed": false,
          "internalType": "uint256",
          "name": "productId",
          "type": "uint256"
        },
        {
          "indexed": false,
          "internalType": "uint256",
          "name": "offerId",
          "type": "uint256"
        },
        {
          "indexed": false,
          "internalType": "uint256",
          "name": "amount",
          "type": "uint256"
        },
        {
          "indexed": false,
          "internalType": "address",
          "name": "beneficiary",
          "type": "address"
        },
        {
          "indexed": false,
          "internalType": "address",
          "name": "offerMaker",
          "type": "address"
        }
      ],
      "name": "OfferPaymentSentInToken",
      "type": "event"
    },
    {
      "anonymous": false,
      "inputs": [
        {
          "indexed": false,
          "internalType": "uint256",
          "name": "productId",
          "type": "uint256"
        },
        {
          "indexed": false,
          "internalType": "uint256",
          "name": "deadline",
          "type": "uint256"
        }
      ],
      "name": "ProductAdded",
      "type": "event"
    },
    {
      "anonymous": false,
      "inputs": [
        {
          "indexed": false,
          "internalType": "uint256",
          "name": "productId",
          "type": "uint256"
        }
      ],
      "name": "ProductClosed",
      "type": "event"
    },
    {
      "anonymous": false,
      "inputs": [
        {
          "indexed": false,
          "internalType": "uint256",
          "name": "productId",
          "type": "uint256"
        }
      ],
      "name": "ProductRemoved",
      "type": "event"
    },
    {
      "anonymous": false,
      "inputs": [
        {
          "indexed": false,
          "internalType": "uint256",
          "name": "productId",
          "type": "uint256"
        },
        {
          "indexed": false,
          "internalType": "uint256",
          "name": "offerId",
          "type": "uint256"
        }
      ],
      "name": "TradeSettled",
      "type": "event"
    },
    {
      "inputs": [
        {
          "internalType": "uint256",
          "name": "_productId",
          "type": "uint256"
        },
        {
          "internalType": "uint256",
          "name": "_acceptedOfferId",
          "type": "uint256"
        }
      ],
      "name": "decideOffer",
      "outputs": [
        {
          "internalType": "bool",
          "name": "status",
          "type": "bool"
        }
      ],
      "stateMutability": "nonpayable",
      "type": "function"
    },
    {
      "inputs": [
        {
          "internalType": "uint256",
          "name": "_productId",
          "type": "uint256"
        }
      ],
      "name": "deleteProduct",
      "outputs": [],
      "stateMutability": "nonpayable",
      "type": "function"
    },
    {
      "inputs": [
        {
          "internalType": "uint256",
          "name": "_productId",
          "type": "uint256"
        }
      ],
      "name": "getOffer",
      "outputs": [
        {
          "internalType": "uint256",
          "name": "offerId",
          "type": "uint256"
        },
        {
          "internalType": "address",
          "name": "offerMaker",
          "type": "address"
        },
        {
          "internalType": "uint256",
          "name": "quantity",
          "type": "uint256"
        },
        {
          "internalType": "enum Marketplace.OfferStatus",
          "name": "stage",
          "type": "uint8"
        },
        {
          "internalType": "uint256",
          "name": "amount",
          "type": "uint256"
        }
      ],
      "stateMutability": "view",
      "type": "function"
    },
    {
      "inputs": [
        {
          "internalType": "address",
          "name": "_orderOwner",
          "type": "address"
        }
      ],
      "name": "getOrders",
      "outputs": [
        {
          "internalType": "uint256",
          "name": "",
          "type": "uint256"
        }
      ],
      "stateMutability": "view",
      "type": "function"
    },
    {
      "inputs": [
        {
          "internalType": "uint256",
          "name": "_productId",
          "type": "uint256"
        }
      ],
      "name": "getProduct",
      "outputs": [
        {
          "internalType": "enum Marketplace.Stage",
          "name": "stage",
          "type": "uint8"
        },
        {
          "internalType": "address",
          "name": "productOwner",
          "type": "address"
        },
        {
          "internalType": "uint256",
          "name": "deadline",
          "type": "uint256"
        }
      ],
      "stateMutability": "view",
      "type": "function"
    },
    {
      "inputs": [
        {
          "internalType": "uint256",
          "name": "_productId",
          "type": "uint256"
        }
      ],
      "name": "getProductOfferIds",
      "outputs": [
        {
          "internalType": "uint256[]",
          "name": "offerIds",
          "type": "uint256[]"
        }
      ],
      "stateMutability": "view",
      "type": "function"
    },
    {
      "inputs": [
        {
          "internalType": "uint256",
          "name": "_productId",
          "type": "uint256"
        }
      ],
      "name": "paymentInEther",
      "outputs": [],
      "stateMutability": "payable",
      "type": "function"
    },
    {
      "inputs": [
        {
          "internalType": "uint256",
          "name": "_productId",
          "type": "uint256"
        },
        {
          "internalType": "uint256",
          "name": "_amount",
          "type": "uint256"
        },
        {
          "internalType": "address",
          "name": "token",
          "type": "address"
        }
      ],
      "name": "paymentInToken",
      "outputs": [
        {
          "internalType": "bool",
          "name": "",
          "type": "bool"
        }
      ],
      "stateMutability": "nonpayable",
      "type": "function"
    },
    {
      "inputs": [
        {
          "internalType": "uint256",
          "name": "_productId",
          "type": "uint256"
        },
        {
          "internalType": "uint256",
          "name": "_price",
          "type": "uint256"
        },
        {
          "internalType": "uint256",
          "name": "_quantity",
          "type": "uint256"
        }
      ],
      "name": "submitOffer",
      "outputs": [
        {
          "internalType": "uint256",
          "name": "offerId",
          "type": "uint256"
        }
      ],
      "stateMutability": "nonpayable",
      "type": "function"
    },
    {
      "inputs": [
        {
          "internalType": "uint256",
          "name": "_deadline",
          "type": "uint256"
        },
        {
          "internalType": "uint256",
          "name": "_quantity",
          "type": "uint256"
        },
        {
          "internalType": "uint256",
          "name": "_price",
          "type": "uint256"
        },
        {
          "internalType": "string",
          "name": "_name",
          "type": "string"
        },
        {
          "internalType": "bytes32",
          "name": "_description",
          "type": "bytes32"
        }
      ],
      "name": "submitProduct",
      "outputs": [
        {
          "internalType": "uint256",
          "name": "productId",
          "type": "uint256"
        }
      ],
      "stateMutability": "nonpayable",
      "type": "function"
    }
  ],
  "bytecode": "0x608060405234801561001057600080fd5b506001600081905550600180819055506120ab8061002f6000396000f3fe6080604052600436106100915760003560e01c80637139f33e116100595780637139f33e146102935780637669419f146102ee578063b9db15b41461037e578063d1a2dc1d146103fc578063ed90c7b71461050057610091565b8063093376fe1461009657806335887ac2146100fb57806335b86055146101765780634579268a146101a45780634e7d0d8114610230575b600080fd5b3480156100a257600080fd5b506100e5600480360360208110156100b957600080fd5b81019080803573ffffffffffffffffffffffffffffffffffffffff16906020019092919050505061053b565b6040518082815260200191505060405180910390f35b34801561010757600080fd5b5061015e6004803603606081101561011e57600080fd5b810190808035906020019092919080359060200190929190803573ffffffffffffffffffffffffffffffffffffffff169060200190929190505050610542565b60405180821515815260200191505060405180910390f35b6101a26004803603602081101561018c57600080fd5b8101908080359060200190929190505050610abf565b005b3480156101b057600080fd5b506101dd600480360360208110156101c757600080fd5b8101908080359060200190929190505050610e27565b604051808681526020018573ffffffffffffffffffffffffffffffffffffffff16815260200184815260200183600281111561021557fe5b81526020018281526020019550505050505060405180910390f35b34801561023c57600080fd5b5061027d6004803603606081101561025357600080fd5b81019080803590602001909291908035906020019092919080359060200190929190505050610ee2565b6040518082815260200191505060405180910390f35b34801561029f57600080fd5b506102d6600480360360408110156102b657600080fd5b810190808035906020019092919080359060200190929190505050611348565b60405180821515815260200191505060405180910390f35b3480156102fa57600080fd5b506103276004803603602081101561031157600080fd5b810190808035906020019092919050505061158c565b6040518080602001828103825283818151815260200191508051906020019060200280838360005b8381101561036a57808201518184015260208101905061034f565b505050509050019250505060405180910390f35b34801561038a57600080fd5b506103b7600480360360208110156103a157600080fd5b81019080803590602001909291905050506115fa565b604051808460018111156103c757fe5b81526020018373ffffffffffffffffffffffffffffffffffffffff168152602001828152602001935050505060405180910390f35b34801561040857600080fd5b506104ea600480360360a081101561041f57600080fd5b810190808035906020019092919080359060200190929190803590602001909291908035906020019064010000000081111561045a57600080fd5b82018360208201111561046c57600080fd5b8035906020019184600183028401116401000000008311171561048e57600080fd5b91908080601f016020809104026020016040519081016040528093929190818152602001838380828437600081840152601f19601f8201169050808301925050505050505091929192908035906020019092919050505061167e565b6040518082815260200191505060405180910390f35b34801561050c57600080fd5b506105396004803603602081101561052357600080fd5b8101908080359060200190929190505050611b22565b005b6000919050565b600080600260008681526020019081526020016000206004015490506000600115156002600088815260200190815260200160002060090160149054906101000a900460ff1615151480156105be5750600015156002600088815260200190815260200160002060090160159054906101000a900460ff161515145b1561097b578373ffffffffffffffffffffffffffffffffffffffff1663dd62ed3e33600260008a815260200190815260200160002060080160009054906101000a900473ffffffffffffffffffffffffffffffffffffffff166040518363ffffffff1660e01b8152600401808373ffffffffffffffffffffffffffffffffffffffff1681526020018273ffffffffffffffffffffffffffffffffffffffff1681526020019250505060206040518083038186803b15801561067e57600080fd5b505afa158015610692573d6000803e3d6000fd5b505050506040513d60208110156106a857600080fd5b8101908080519060200190929190505050508373ffffffffffffffffffffffffffffffffffffffff166323b872dd33600260008a815260200190815260200160002060080160009054906101000a900473ffffffffffffffffffffffffffffffffffffffff16886040518463ffffffff1660e01b8152600401808473ffffffffffffffffffffffffffffffffffffffff1681526020018373ffffffffffffffffffffffffffffffffffffffff1681526020018281526020019350505050602060405180830381600087803b15801561077f57600080fd5b505af1158015610793573d6000803e3d6000fd5b505050506040513d60208110156107a957600080fd5b810190808051906020019092919050505061082c576040517f08c379a000000000000000000000000000000000000000000000000000000000815260040180806020018281038252600f8152602001807f5472616e73666572206661696c6564000000000000000000000000000000000081525060200191505060405180910390fd5b8373ffffffffffffffffffffffffffffffffffffffff166323b872dd6002600089815260200190815260200160002060080160009054906101000a900473ffffffffffffffffffffffffffffffffffffffff166003600086815260200190815260200160002060040160009054906101000a900473ffffffffffffffffffffffffffffffffffffffff1660036000878152602001908152602001600020600201546040518463ffffffff1660e01b8152600401808473ffffffffffffffffffffffffffffffffffffffff1681526020018373ffffffffffffffffffffffffffffffffffffffff1681526020018281526020019350505050602060405180830381600087803b15801561093d57600080fd5b505af1158015610951573d6000803e3d6000fd5b505050506040513d602081101561096757600080fd5b810190808051906020019092919050505090505b6001151581151514156109c25760016002600088815260200190815260200160002060090160156101000a81548160ff021916908315150217905550600192505050610ab8565b7fe983e384dcbcba6b1a57e6bfe3b13816be55613ba87732f2efb59ad358f818ef868387600260008b815260200190815260200160002060080160009054906101000a900473ffffffffffffffffffffffffffffffffffffffff166003600088815260200190815260200160002060040160009054906101000a900473ffffffffffffffffffffffffffffffffffffffff16604051808681526020018581526020018481526020018373ffffffffffffffffffffffffffffffffffffffff1681526020018273ffffffffffffffffffffffffffffffffffffffff1681526020019550505050505060405180910390a16000925050505b9392505050565b3373ffffffffffffffffffffffffffffffffffffffff1631341015610b4c576040517f08c379a000000000000000000000000000000000000000000000000000000000815260040180806020018281038252601e8152602001807f596f7520646f6e27742068617665207375666669636965742066756e6473000081525060200191505060405180910390fd5b3373ffffffffffffffffffffffffffffffffffffffff16600360006002600085815260200190815260200160002060040154815260200190815260200160002060040160009054906101000a900473ffffffffffffffffffffffffffffffffffffffff1673ffffffffffffffffffffffffffffffffffffffff1614610c39576040517f08c379a000000000000000000000000000000000000000000000000000000000815260040180806020018281038252601f8152602001807f4f6e6c7920617574686f72697a652062757965722063616e206163636573730081525060200191505060405180910390fd5b60006002600083815260200190815260200160002060040154905060006002600084815260200190815260200160002060080160009054906101000a900473ffffffffffffffffffffffffffffffffffffffff169050600115156002600085815260200190815260200160002060090160149054906101000a900460ff161515148015610ced5750600015156002600085815260200190815260200160002060090160159054906101000a900460ff161515145b15610d3a578073ffffffffffffffffffffffffffffffffffffffff166108fc349081150290604051600060405180830381858888f19350505050158015610d38573d6000803e3d6000fd5b505b60016002600085815260200190815260200160002060090160156101000a81548160ff0219169083151502179055507f42285bb9994c0ceab0f920570adb7fcf8e1c79e397becd9b0bfaa1da4745acfc838334846003600088815260200190815260200160002060040160009054906101000a900473ffffffffffffffffffffffffffffffffffffffff16604051808681526020018581526020018481526020018373ffffffffffffffffffffffffffffffffffffffff1681526020018273ffffffffffffffffffffffffffffffffffffffff1681526020019550505050505060405180910390a1505050565b600080600080600060036000878152602001908152602001600020600101546003600088815260200190815260200160002060040160009054906101000a900473ffffffffffffffffffffffffffffffffffffffff166003600089815260200190815260200160002060030154600360008a815260200190815260200160002060040160149054906101000a900460ff16600360008b8152602001908152602001600020600201549450945094509450945091939590929450565b600060026000858152602001908152602001600020600301544211610f52576040517f08c379a000000000000000000000000000000000000000000000000000000000815260040180806020018281038252602781526020018061204f6027913960400191505060405180910390fd5b6002600085815260200190815260200160002060080160149054906101000a900460ff166001811115610f8157fe5b60006001811115610f8e57fe5b14611001576040517f08c379a00000000000000000000000000000000000000000000000000000000081526004018080602001828103825260178152602001807f50726f64756374206973206e6f74206f70656e206e6f7700000000000000000081525060200191505060405180910390fd5b603260026000868152602001908152602001600020600501805490501115611091576040517f08c379a00000000000000000000000000000000000000000000000000000000081526004018080602001828103825260178152602001807f4c696d6974206f66206f66666572732063726f7373656400000000000000000081525060200191505060405180910390fd5b3373ffffffffffffffffffffffffffffffffffffffff166003600086815260200190815260200160002060040160009054906101000a900473ffffffffffffffffffffffffffffffffffffffff1673ffffffffffffffffffffffffffffffffffffffff161415611169576040517f08c379a000000000000000000000000000000000000000000000000000000000815260040180806020018281038252601e8152602001807f596f752063616e206d616b65206f6e6c792073696e676c65206f66666572000081525060200191505060405180910390fd5b611171611df4565b848160200181815250508381604001818152505033816080019073ffffffffffffffffffffffffffffffffffffffff16908173ffffffffffffffffffffffffffffffffffffffff1681525050828160600181815250506001548160000181815250506001806000828254019250508190555060008160a0019060028111156111f557fe5b9081600281111561120257fe5b815250508060036000836000015181526020019081526020016000206000820151816000015560208201518160010155604082015181600201556060820151816003015560808201518160040160006101000a81548173ffffffffffffffffffffffffffffffffffffffff021916908373ffffffffffffffffffffffffffffffffffffffff16021790555060a08201518160040160146101000a81548160ff021916908360028111156112b157fe5b02179055509050506002600082602001518152602001908152602001600020600501816000015190806001815401808255809150506001900390600052602060002001600090919091909150557f41ed8f014b7d5f314760bdd6a5d51932a4bf683b0780d2c0a9de75bbc18d096581600001516040518082815260200191505060405180910390a180600001519150509392505050565b6000823373ffffffffffffffffffffffffffffffffffffffff166002600083815260200190815260200160002060080160009054906101000a900473ffffffffffffffffffffffffffffffffffffffff1673ffffffffffffffffffffffffffffffffffffffff1614611422576040517f08c379a000000000000000000000000000000000000000000000000000000000815260040180806020018281038252601b8152602001807f4f6e6c79206f72646572206f776e65722063616e20616363657373000000000081525060200191505060405180910390fd5b61142b84611cf7565b60005b600260008681526020019081526020016000206005018054905081116114f7578360026000878152602001908152602001600020600501828154811061147057fe5b90600052602060002001541415611486576114ea565b6002600360006002600089815260200190815260200160002060050184815481106114ad57fe5b9060005260206000200154815260200190815260200160002060040160146101000a81548160ff021916908360028111156114e457fe5b02179055505b808060010191505061142e565b5082600260008681526020019081526020016000206004018190555060016002600086815260200190815260200160002060090160146101000a81548160ff0219169083151502179055507f48f2a901dec7aaa33813da00d8fc0a7093b3d1e96619c915489581a16b52a4ef8484604051808381526020018281526020019250505060405180910390a1600191505092915050565b6060600260008381526020019081526020016000206005018054806020026020016040519081016040528092919081815260200182805480156115ee57602002820191906000526020600020905b8154815260200190600101908083116115da575b50505050509050919050565b60008060006002600085815260200190815260200160002060080160149054906101000a900460ff166002600086815260200190815260200160002060080160009054906101000a900473ffffffffffffffffffffffffffffffffffffffff1660026000878152602001908152602001600020600301549250925092509193909250565b6000611688611e4b565b60005481600001818152505060016000808282540192505081905550868160600181815250508581604001818152505084816020018181525050838160c00181905250828160e00181815250503381610100019073ffffffffffffffffffffffffffffffffffffffff16908173ffffffffffffffffffffffffffffffffffffffff16815250506000816101200190600181111561172157fe5b9081600181111561172e57fe5b81525050600081610180019015159081151581525050806002600083600001518152602001908152602001600020600082015181600001556020820151816001015560408201518160020155606082015181600301556080820151816004015560a08201518160050190805190602001906117aa929190611efb565b5060c08201518160060190805190602001906117c7929190611f48565b5060e082015181600701556101008201518160080160006101000a81548173ffffffffffffffffffffffffffffffffffffffff021916908373ffffffffffffffffffffffffffffffffffffffff1602179055506101208201518160080160146101000a81548160ff0219169083600181111561183f57fe5b02179055506101408201518160080160156101000a81548160ff021916908360ff1602179055506101608201518160090160006101000a81548173ffffffffffffffffffffffffffffffffffffffff021916908373ffffffffffffffffffffffffffffffffffffffff1602179055506101808201518160090160146101000a81548160ff0219169083151502179055506101a08201518160090160156101000a81548160ff02191690831515021790555090505080600460003373ffffffffffffffffffffffffffffffffffffffff1673ffffffffffffffffffffffffffffffffffffffff168152602001908152602001600020600082015181600001556020820151816001015560408201518160020155606082015181600301556080820151816004015560a0820151816005019080519060200190611981929190611efb565b5060c082015181600601908051906020019061199e929190611f48565b5060e082015181600701556101008201518160080160006101000a81548173ffffffffffffffffffffffffffffffffffffffff021916908373ffffffffffffffffffffffffffffffffffffffff1602179055506101208201518160080160146101000a81548160ff02191690836001811115611a1657fe5b02179055506101408201518160080160156101000a81548160ff021916908360ff1602179055506101608201518160090160006101000a81548173ffffffffffffffffffffffffffffffffffffffff021916908373ffffffffffffffffffffffffffffffffffffffff1602179055506101808201518160090160146101000a81548160ff0219169083151502179055506101a08201518160090160156101000a81548160ff0219169083151502179055509050507f33c160b359f2cb727eded18f7af833115619d0cf7a86e511856c2b8ec4f60a6f81600001518260600151604051808381526020018281526020019250505060405180910390a1806000015191505095945050505050565b60005b6002600083815260200190815260200160002060050180549050811015611bef5760036000600260008581526020019081526020016000206005018381548110611b6b57fe5b906000526020600020015481526020019081526020016000206000808201600090556001820160009055600282016000905560038201600090556004820160006101000a81549073ffffffffffffffffffffffffffffffffffffffff02191690556004820160146101000a81549060ff021916905550508080600101915050611b25565b50600260008281526020019081526020016000206000808201600090556001820160009055600282016000905560038201600090556004820160009055600582016000611c3c9190611fc8565b600682016000611c4c9190611fe9565b60078201600090556008820160006101000a81549073ffffffffffffffffffffffffffffffffffffffff02191690556008820160146101000a81549060ff02191690556008820160156101000a81549060ff02191690556009820160006101000a81549073ffffffffffffffffffffffffffffffffffffffff02191690556009820160146101000a81549060ff02191690556009820160156101000a81549060ff0219169055505050565b42600260008381526020019081526020016000206003015414611d82576040517f08c379a00000000000000000000000000000000000000000000000000000000081526004018080602001828103825260168152602001807f446561646c696e65206e6f7420636f6d706c657465640000000000000000000081525060200191505060405180910390fd5b60016002600083815260200190815260200160002060080160146101000a81548160ff02191690836001811115611db557fe5b02179055507f4decba8405d75cb4731d42b112ddf38b53e3e7900aa350cb8c6a0d9af5bc0676816040518082815260200191505060405180910390a150565b6040518060c0016040528060008152602001600081526020016000815260200160008152602001600073ffffffffffffffffffffffffffffffffffffffff16815260200160006002811115611e4557fe5b81525090565b604051806101c001604052806000815260200160008152602001600081526020016000815260200160008152602001606081526020016060815260200160008019168152602001600073ffffffffffffffffffffffffffffffffffffffff16815260200160006001811115611ebc57fe5b8152602001600060ff168152602001600073ffffffffffffffffffffffffffffffffffffffff1681526020016000151581526020016000151581525090565b828054828255906000526020600020908101928215611f37579160200282015b82811115611f36578251825591602001919060010190611f1b565b5b509050611f449190612031565b5090565b828054600181600116156101000203166002900490600052602060002090601f016020900481019282601f10611f8957805160ff1916838001178555611fb7565b82800160010185558215611fb7579182015b82811115611fb6578251825591602001919060010190611f9b565b5b509050611fc49190612031565b5090565b5080546000825590600052602060002090810190611fe69190612031565b50565b50805460018160011615610100020316600290046000825580601f1061200f575061202e565b601f01602090049060005260206000209081019061202d9190612031565b5b50565b5b8082111561204a576000816000905550600101612032565b509056fe536f7272792074696d6520697320636f6d706c6574656420746f207375626d6974206f66666572a2646970667358221220192a433cb33a92581ab25869e4ba336f2999de78efdf802e71e6b34ee74a92e364736f6c63430007000033",
  "compiler": {
    "name": "solc",
    "version": "0.7.0+commit.9e61f92b.Emscripten.clang",
    "optimizer": {
      "enabled": false,
      "runs": 200
    },
    "evmVersion": "petersburg"
  }
}